:0906530001098C010B960108015C
:0405FA007FC87E0038
:1005FE00D3EF9400EE940040147D727C00ED1D70DC
:0D060E00011CED4C70F7EF1F70E61E80E33D
:01061B0022BC
:09065D00C290D291D292C2932204
:09066600C290C291D292C293220B
:09066F00C292C293C290D2912202
:09067800D290C291D292C29322E9
:09068100C290D291C292D29322E0
:09068A00D290C291C292D29322D7
:09069300C290C291C292C29322EE
:03000B000205B03B
:1005B000C0E0C0D0050AE50AB4FF07C295C2947531
:1005C0000A00E509B50A02D294E50BB50A02D295F4
:0505D000D0D0D0E032A4
:030023000202F1E5
:1002F100C0E0C0F0C083C082C0D075D000C000C0D3
:0D03010001C002C003C004C005C006C00753
:10030E00209803020396C29885990C850C08E50C7B
:10031E00C394334036E50CD39496502FE50C24CE7F
:10032E00FDE434FFFCE41202297B9A7A9979D9789C
:10033E003F12011EA804A905AA06AB07E4FFFE7D25
:10034E002A7C431200291202628F09E50CC394978E
:10035E004036E50CD394FA502FE50C246AFDE434B4
:10036E00FFFCE41202297B9A7A9979D9783F12011F
:10037E001EA804A905AA06AB07E4FFFE7D2A7C434E
:08038E001200291202628F0B1C
:10039600D007D006D005D004D003D002D001D000BB
:0B03A600D0D0D082D083D0F0D0E03265
:10063800438902758CDC758ADCD28CD2A9D2AF22B0
:10000E00759850438920758DFD758BFDD28ED2AFBC
:03001E00D2AC223F
:10061C0012065D1205FA1206811205FA12068A12EA
:0C062C0005FA1206787FC87E000205FE69
:1005D50020B60620B50302065D30B60630B5031217
:1005E500069330B60620B50312067830B50620B658
:0505F500031206812243
:10057A0030B70630B40312065D20B71720B4141240
:10058A00068A7F327E001205FE1206817F1E7E00D9
:10059A001205FE20B70630B40312068120B40630D5
:0605AA00B70312067822DF
:10053D0020B60620B50302065D30B60630B50312AF
:10054D00069330B60620B50312067830B50620B6F0
:10055D0003120681E5906014120693C2961205FAF5
:0D056D00D2961206937F647E001205FE22D6
:10043D00E508D394074003120693E50814B40900A8
:10044D00504390045D75F003A4C58325F0C58373F7
:10045D0002048402047802047B02047E02048102F9
:10046D00048702048A02048D02049002065D0206CE
:10047D008A02066602066F0206930206780206815C
:06048D00C2A622D2A62245
:10049300E508D394074003120693E50814B4090052
:1004A30050439004B375F003A4C58325F0C583734B
:1004B3000204DA0204CE0204D10204D40204D702F5
:1004C30004DD0204E00204E30204E602065D020620
:1004D3008A02066602066F02069302067802068106
:0604E300C2A622D2A622EF
:1004E90020A4127F057E001205FE20A40830A4FD79
:1004F90012061C80FB20A5127F057E001205FE2036
:10050900A50830A5FD1205D580FB20A6127F057E22
:10051900001205FE20A60830A6FD12057A80FB20F0
:10052900A7BE7F057E001205FE20A7B430A7FD12E5
:04053900053D80FB01
:0B06480012000E1206381204E980FBBD
:100026000202CEE86480F8E933E83360110460F038
:10003600ED33EC337009E8FCE9FDEAFEEBFF220440
:1000460060DED3EB9FEA9EE99DE8C2E78CF0C2F73B
:1000560095F0400CE8CCF8E9CDF9EACEFAEBCFFB07
:1000660012029985D0F05804700320D5B3E80470C5
:10007600075002B2D50202D892D5EC0460F7E4CC60
:10008600C0E0C398F8603B94186008400DD0E0FBD0
:100096000202B0E4FBFAC9FC8028E830E406E4C9B1
:1000A600FBE4CAFCE830E305E4C9CACBFCE8540724
:1000B6006010F8C3E913F9EA13FAEB13FBEC13FC2F
:1000C600D8F130F52FC3E49CFCEF9BFFEE9AFEEDD2
:1000D60099FDD0E0FBEF4E4D4C701222DB0302027D
:1000E600D5EC2CFCEF33FFEE33FEED33FDED30E7C0
:1000F600EB0202B0EF2BFFEE3AFEED39FDD0E0FB4E
:1001060050130BBB00030202D8ED13FDEE13FEEFF6
:0801160013FFEC13FC0202B020
:10011E00EC4D6011E8497017ED33EC3304600DE4DB
:10012E00FCFFFEFD22E933E8330470F80202CE1222
:10013E00029958046009E4CC248150062850090223
:10014E0002D82840030202D5C0E0EB4A7044B980C1
:10015E0006D0E0FB0202C4EF4E701CBD8008EBFF20
:10016E00EAFEE9FD80EBE98DF0A4FEE5F002020760
:10017E00E9CDF9EAFEEBFFEF89F0A4FCE5F0CE89BC
:10018E00F0A42EFFE435F0CD89F0A42DFEE435F079
:10019E008067EF4E7005BD80D780C3EF8BF0A4ACA7
:1001AE00F0EE8BF0A42CFCE435F0F8EF8AF0A42CE2
:1001BE00E5F038FCE433CB8DF0A42CFCE5F03BF8F5
:1001CE00EE8AF0A42CFCE5F038F8E433CF89F0A4E5
:1001DE002CFCE5F038CF3400CE89F0A42FFFE5F0EB
:1001EE003EFEE433C98DF0A42EFEE5F039CD8AF043
:1001FE00A42FFFE5F03EFEE43DFD33D0E0FB5007BB
:10020E000BBB000F0202D8EC2CFCEF33FFEE33FEDB
:06021E00ED33FD0202B009
:1002240075F020800E75F010800575F0087D007E55
:10023400007F003392D530D5031202E3EC33401033
:10024400EF33FFEE33FEED33FDEC33FCD5F0ED225E
:0E025400E5F0247EA2D513CC92E7CDCEFF229A
:10026200EDD2E7CD33EC3392D524814006E4FFFE94
:10027200FDFC22FCE4CFCECDCC24E0501174FF80F3
:10028200EDC3CC13CCCD13CDCE13CECF13CF047090
:07029200F030D5DE0202E3AB
:10029900E9D2E7C933E833F892D5EDD2E7CD33ECAB
:0702A90033FC5002B2D52224
:1002B000EC30E7100FBF000C0EBE00080DBD0004AF
:1002C0000BEB6014A2D5EB13FCED92E7FD2274FF5B
:1002D000FCFDFEFF22E480F8A2D574FF13FC7D80B4
:0302E000E480EFC8
:030000000203B147
:0C03B100787FE4F6D8FD75810C0203F89B
:0E02E300C3E49FFFE49EFEE49DFDE49CFC222C
:1003BD00020648E493A3F8E493A34003F68001F208
:1003CD0008DFF48029E493A3F85407240CC8C33341
:1003DD00C4540F4420C8834004F456800146F6DF10
:1003ED00E4800B0102040810204080900653E47E47
:1003FD00019360BCA3FF543F30E509541FFEE49305
:10040D00A360010ECF54C025E060A840B8E493A3CB
:10041D00FAE493A3F8E493A3C8C582C8CAC583CAF6
:10042D00F0A3C8C582C8CAC583CADFE9DEE780BEAE
:01065C00009D
:00000001FF
